{
  "_format": "hh-sol-artifact-1",
  "contractName": "upload",
  "sourceName": "contracts/upload.sol",
  "abi": [
    {
      "anonymous": false,
      "inputs": [
        {
          "indexed": true,
          "internalType": "address",
          "name": "user",
          "type": "address"
        },
        {
          "indexed": false,
          "internalType": "string",
          "name": "ipfsHash",
          "type": "string"
        }
      ],
      "name": "FileRemove",
      "type": "event"
    },
    {
      "anonymous": false,
      "inputs": [
        {
          "indexed": true,
          "internalType": "address",
          "name": "user",
          "type": "address"
        },
        {
          "indexed": false,
          "internalType": "string",
          "name": "ipfsHash",
          "type": "string"
        }
      ],
      "name": "FileUpload",
      "type": "event"
    },
    {
      "inputs": [
        {
          "internalType": "address",
          "name": "user",
          "type": "address"
        }
      ],
      "name": "getFile",
      "outputs": [
        {
          "internalType": "string[]",
          "name": "",
          "type": "string[]"
        }
      ],
      "stateMutability": "view",
      "type": "function"
    },
    {
      "inputs": [
        {
          "internalType": "string",
          "name": "ipfs_hash",
          "type": "string"
        }
      ],
      "name": "removeFile",
      "outputs": [],
      "stateMutability": "nonpayable",
      "type": "function"
    },
    {
      "inputs": [
        {
          "internalType": "string",
          "name": "ipfs_hash",
          "type": "string"
        }
      ],
      "name": "uploadFile",
      "outputs": [],
      "stateMutability": "nonpayable",
      "type": "function"
    }
  ],
  "bytecode": "0x608060405234801561001057600080fd5b50610fd6806100206000396000f3fe608060405234801561001057600080fd5b50600436106100415760003560e01c80630b87c1e014610046578063e37ffc3014610076578063f1afe04d14610092575b600080fd5b610060600480360381019061005b9190610584565b6100ae565b60405161006d9190610703565b60405180910390f35b610090600480360381019061008b919061085a565b6101c5565b005b6100ac60048036038101906100a7919061085a565b610287565b005b60606000808373ffffffffffffffffffffffffffffffffffffffff1673ffffffffffffffffffffffffffffffffffffffff168152602001908152602001600020805480602002602001604051908101604052809291908181526020016000905b828210156101ba57838290600052602060002001805461012d906108d2565b80601f0160208091040260200160405190810160405280929190818152602001828054610159906108d2565b80156101a65780601f1061017b576101008083540402835291602001916101a6565b820191906000526020600020905b81548152906001019060200180831161018957829003601f168201915b50505050508152602001906001019061010e565b505050509050919050565b6000803373ffffffffffffffffffffffffffffffffffffffff1673ffffffffffffffffffffffffffffffffffffffff168152602001908152602001600020819080600181540180825580915050600190039060005260206000200160009091909190915090816102359190610ab9565b503373ffffffffffffffffffffffffffffffffffffffff167f7e599b2426dbcc684396096c55394bba8f0e89cd4bd73d8a58a063b5b432f2978260405161027c9190610bd5565b60405180910390a250565b60008060003373ffffffffffffffffffffffffffffffffffffffff1673ffffffffffffffffffffffffffffffffffffffff168152602001908152602001600020905060008080600090505b838054905081101561036c57846040516020016102ef9190610c33565b6040516020818303038152906040528051906020012084828154811061031857610317610c4a565b5b906000526020600020016040516020016103329190610cfc565b6040516020818303038152906040528051906020012003610359576001925080915061036c565b808061036490610d42565b9150506102d2565b50816103ad576040517f08c379a00000000000000000000000000000000000000000000000000000000081526004016103a490610dd6565b60405180910390fd5b60008190505b600184805490506103c49190610df6565b81101561043157836001826103d99190610e2a565b815481106103ea576103e9610c4a565b5b9060005260206000200184828154811061040757610406610c4a565b5b90600052602060002001908161041d9190610e89565b50808061042990610d42565b9150506103b3565b508280548061044357610442610f71565b5b60019003818190600052602060002001600061045f91906104b5565b90553373ffffffffffffffffffffffffffffffffffffffff167fd29d964614246d1d1678ad730219c9f7e018ad3e1c16693a6052705c432079a2856040516104a79190610bd5565b60405180910390a250505050565b5080546104c1906108d2565b6000825580601f106104d357506104f2565b601f0160209004906000526020600020908101906104f191906104f5565b5b50565b5b8082111561050e5760008160009055506001016104f6565b5090565b6000604051905090565b600080fd5b600080fd5b600073ffffffffffffffffffffffffffffffffffffffff82169050919050565b600061055182610526565b9050919050565b61056181610546565b811461056c57600080fd5b50565b60008135905061057e81610558565b92915050565b60006020828403121561059a5761059961051c565b5b60006105a88482850161056f565b91505092915050565b600081519050919050565b600082825260208201905092915050565b6000819050602082019050919050565b600081519050919050565b600082825260208201905092915050565b60005b838110156106175780820151818401526020810190506105fc565b60008484015250505050565b6000601f19601f8301169050919050565b600061063f826105dd565b61064981856105e8565b93506106598185602086016105f9565b61066281610623565b840191505092915050565b60006106798383610634565b905092915050565b6000602082019050919050565b6000610699826105b1565b6106a381856105bc565b9350836020820285016106b5856105cd565b8060005b858110156106f157848403895281516106d2858261066d565b94506106dd83610681565b925060208a019950506001810190506106b9565b50829750879550505050505092915050565b6000602082019050818103600083015261071d818461068e565b905092915050565b600080fd5b600080fd5b7f4e487b7100000000000000000000000000000000000000000000000000000000600052604160045260246000fd5b61076782610623565b810181811067ffffffffffffffff821117156107865761078561072f565b5b80604052505050565b6000610799610512565b90506107a5828261075e565b919050565b600067ffffffffffffffff8211156107c5576107c461072f565b5b6107ce82610623565b9050602081019050919050565b82818337600083830152505050565b60006107fd6107f8846107aa565b61078f565b9050828152602081018484840111156108195761081861072a565b5b6108248482856107db565b509392505050565b600082601f83011261084157610840610725565b5b81356108518482602086016107ea565b91505092915050565b6000602082840312156108705761086f61051c565b5b600082013567ffffffffffffffff81111561088e5761088d610521565b5b61089a8482850161082c565b91505092915050565b7f4e487b7100000000000000000000000000000000000000000000000000000000600052602260045260246000fd5b600060028204905060018216806108ea57607f821691505b6020821081036108fd576108fc6108a3565b5b50919050565b60008190508160005260206000209050919050565b60006020601f8301049050919050565b600082821b905092915050565b6000600883026109657fffffffffffffffffffffffffffffffffffffffffffffffffffffffffffffffff82610928565b61096f8683610928565b95508019841693508086168417925050509392505050565b6000819050919050565b6000819050919050565b60006109b66109b16109ac84610987565b610991565b610987565b9050919050565b6000819050919050565b6109d08361099b565b6109e46109dc826109bd565b848454610935565b825550505050565b600090565b6109f96109ec565b610a048184846109c7565b505050565b5b81811015610a2857610a1d6000826109f1565b600181019050610a0a565b5050565b601f821115610a6d57610a3e81610903565b610a4784610918565b81016020851015610a56578190505b610a6a610a6285610918565b830182610a09565b50505b505050565b600082821c905092915050565b6000610a9060001984600802610a72565b1980831691505092915050565b6000610aa98383610a7f565b9150826002028217905092915050565b610ac2826105dd565b67ffffffffffffffff811115610adb57610ada61072f565b5b610ae582546108d2565b610af0828285610a2c565b600060209050601f831160018114610b235760008415610b11578287015190505b610b1b8582610a9d565b865550610b83565b601f198416610b3186610903565b60005b82811015610b5957848901518255600182019150602085019450602081019050610b34565b86831015610b765784890151610b72601f891682610a7f565b8355505b6001600288020188555050505b505050505050565b600082825260208201905092915050565b6000610ba7826105dd565b610bb18185610b8b565b9350610bc18185602086016105f9565b610bca81610623565b840191505092915050565b60006020820190508181036000830152610bef8184610b9c565b905092915050565b600081905092915050565b6000610c0d826105dd565b610c178185610bf7565b9350610c278185602086016105f9565b80840191505092915050565b6000610c3f8284610c02565b915081905092915050565b7f4e487b7100000000000000000000000000000000000000000000000000000000600052603260045260246000fd5b60008154610c86816108d2565b610c908186610bf7565b94506001821660008114610cab5760018114610cc057610cf3565b60ff1983168652811515820286019350610cf3565b610cc985610903565b60005b83811015610ceb57815481890152600182019150602081019050610ccc565b838801955050505b50505092915050565b6000610d088284610c79565b915081905092915050565b7f4e487b7100000000000000000000000000000000000000000000000000000000600052601160045260246000fd5b6000610d4d82610987565b91507fffffffffffffffffffffffffffffffffffffffffffffffffffffffffffffffff8203610d7f57610d7e610d13565b5b600182019050919050565b7f46696c65206e6f7420666f756e64000000000000000000000000000000000000600082015250565b6000610dc0600e83610b8b565b9150610dcb82610d8a565b602082019050919050565b60006020820190508181036000830152610def81610db3565b9050919050565b6000610e0182610987565b9150610e0c83610987565b9250828203905081811115610e2457610e23610d13565b5b92915050565b6000610e3582610987565b9150610e4083610987565b9250828201905080821115610e5857610e57610d13565b5b92915050565b600081549050610e6d816108d2565b9050919050565b60008190508160005260206000209050919050565b818103610e97575050610f6f565b610ea082610e5e565b67ffffffffffffffff811115610eb957610eb861072f565b5b610ec382546108d2565b610ece828285610a2c565b6000601f831160018114610efd5760008415610eeb578287015490505b610ef58582610a9d565b865550610f68565b601f198416610f0b87610e74565b9650610f1686610903565b60005b82811015610f3e57848901548255600182019150600185019450602081019050610f19565b86831015610f5b5784890154610f57601f891682610a7f565b8355505b6001600288020188555050505b5050505050505b565b7f4e487b7100000000000000000000000000000000000000000000000000000000600052603160045260246000fdfea264697066735822122025092a0e9ad2c0026386cb857a01fc74bbf8777ab8df0ebf6af594ea987a788b64736f6c63430008110033",
  "linkReferences": {},
  "deployedLinkReferences": {}
}